{
  "_format": "hh-sol-artifact-1",
  "contractName": "ProjectFunding",
  "sourceName": "contracts/ProjectFunding.sol",
  "contractAddress": "0x5FbDB2315678afecb367f032d93F642f64180aa3",
  "network": "hardhat",
  "abi": [
    {
      "inputs": [],
      "stateMutability": "nonpayable",
      "type": "constructor"
    },
    {
      "inputs": [
        {
          "internalType": "address",
          "name": "owner",
          "type": "address"
        }
      ],
      "name": "OwnableInvalidOwner",
      "type": "error"
    },
    {
      "inputs": [
        {
          "internalType": "address",
          "name": "account",
          "type": "address"
        }
      ],
      "name": "OwnableUnauthorizedAccount",
      "type": "error"
    },
    {
      "inputs": [],
      "name": "ReentrancyGuardReentrantCall",
      "type": "error"
    },
    {
      "anonymous": false,
      "inputs": [
        {
          "indexed": true,
          "internalType": "uint256",
          "name": "projectId",
          "type": "uint256"
        },
        {
          "indexed": true,
          "internalType": "address",
          "name": "sponsor",
          "type": "address"
        },
        {
          "indexed": false,
          "internalType": "uint256",
          "name": "amount",
          "type": "uint256"
        },
        {
          "indexed": false,
          "internalType": "uint256",
          "name": "totalDeposited",
          "type": "uint256"
        }
      ],
      "name": "FundsDeposited",
      "type": "event"
    },
    {
      "anonymous": false,
      "inputs": [
        {
          "indexed": true,
          "internalType": "uint256",
          "name": "projectId",
          "type": "uint256"
        },
        {
          "indexed": true,
          "internalType": "address",
          "name": "recipient",
          "type": "address"
        },
        {
          "indexed": false,
          "internalType": "uint256",
          "name": "amount",
          "type": "uint256"
        },
        {
          "indexed": false,
          "internalType": "uint256",
          "name": "milestoneIndex",
          "type": "uint256"
        }
      ],
      "name": "FundsReleased",
      "type": "event"
    },
    {
      "anonymous": false,
      "inputs": [
        {
          "indexed": true,
          "internalType": "uint256",
          "name": "projectId",
          "type": "uint256"
        },
        {
          "indexed": false,
          "internalType": "uint256",
          "name": "milestoneIndex",
          "type": "uint256"
        },
        {
          "indexed": false,
          "internalType": "uint256",
          "name": "amountReleased",
          "type": "uint256"
        }
      ],
      "name": "MilestoneApproved",
      "type": "event"
    },
    {
      "anonymous": false,
      "inputs": [
        {
          "indexed": true,
          "internalType": "uint256",
          "name": "projectId",
          "type": "uint256"
        },
        {
          "indexed": false,
          "internalType": "uint256",
          "name": "milestoneIndex",
          "type": "uint256"
        },
        {
          "indexed": false,
          "internalType": "string",
          "name": "description",
          "type": "string"
        }
      ],
      "name": "MilestoneCompleted",
      "type": "event"
    },
    {
      "anonymous": false,
      "inputs": [
        {
          "indexed": true,
          "internalType": "address",
          "name": "previousOwner",
          "type": "address"
        },
        {
          "indexed": true,
          "internalType": "address",
          "name": "newOwner",
          "type": "address"
        }
      ],
      "name": "OwnershipTransferred",
      "type": "event"
    },
    {
      "anonymous": false,
      "inputs": [
        {
          "indexed": true,
          "internalType": "uint256",
          "name": "projectId",
          "type": "uint256"
        }
      ],
      "name": "ProjectCompleted",
      "type": "event"
    },
    {
      "anonymous": false,
      "inputs": [
        {
          "indexed": true,
          "internalType": "uint256",
          "name": "projectId",
          "type": "uint256"
        },
        {
          "indexed": false,
          "internalType": "string",
          "name": "name",
          "type": "string"
        },
        {
          "indexed": true,
          "internalType": "address",
          "name": "creator",
          "type": "address"
        },
        {
          "indexed": true,
          "internalType": "address",
          "name": "sponsor",
          "type": "address"
        },
        {
          "indexed": false,
          "internalType": "uint256",
          "name": "totalBudget",
          "type": "uint256"
        }
      ],
      "name": "ProjectCreated",
      "type": "event"
    },
    {
      "inputs": [
        {
          "internalType": "uint256",
          "name": "_projectId",
          "type": "uint256"
        },
        {
          "internalType": "uint256",
          "name": "_milestoneIndex",
          "type": "uint256"
        }
      ],
      "name": "approveMilestone",
      "outputs": [],
      "stateMutability": "nonpayable",
      "type": "function"
    },
    {
      "inputs": [
        {
          "internalType": "uint256",
          "name": "_projectId",
          "type": "uint256"
        },
        {
          "internalType": "uint256",
          "name": "_milestoneIndex",
          "type": "uint256"
        }
      ],
      "name": "completeMilestone",
      "outputs": [],
      "stateMutability": "nonpayable",
      "type": "function"
    },
    {
      "inputs": [
        {
          "internalType": "string",
          "name": "_name",
          "type": "string"
        },
        {
          "internalType": "string",
          "name": "_description",
          "type": "string"
        },
        {
          "internalType": "address",
          "name": "_sponsor",
          "type": "address"
        },
        {
          "internalType": "string[]",
          "name": "_milestoneDescriptions",
          "type": "string[]"
        },
        {
          "internalType": "uint256[]",
          "name": "_milestoneAmounts",
          "type": "uint256[]"
        },
        {
          "internalType": "uint256[]",
          "name": "_milestoneDueDates",
          "type": "uint256[]"
        }
      ],
      "name": "createProject",
      "outputs": [
        {
          "internalType": "uint256",
          "name": "",
          "type": "uint256"
        }
      ],
      "stateMutability": "nonpayable",
      "type": "function"
    },
    {
      "inputs": [
        {
          "internalType": "uint256",
          "name": "_projectId",
          "type": "uint256"
        }
      ],
      "name": "depositFunds",
      "outputs": [],
      "stateMutability": "payable",
      "type": "function"
    },
    {
      "inputs": [
        {
          "internalType": "uint256",
          "name": "_projectId",
          "type": "uint256"
        }
      ],
      "name": "emergencyWithdraw",
      "outputs": [],
      "stateMutability": "nonpayable",
      "type": "function"
    },
    {
      "inputs": [],
      "name": "getContractBalance",
      "outputs": [
        {
          "internalType": "uint256",
          "name": "",
          "type": "uint256"
        }
      ],
      "stateMutability": "view",
      "type": "function"
    },
    {
      "inputs": [
        {
          "internalType": "uint256",
          "name": "_projectId",
          "type": "uint256"
        },
        {
          "internalType": "uint256",
          "name": "_milestoneIndex",
          "type": "uint256"
        }
      ],
      "name": "getMilestone",
      "outputs": [
        {
          "internalType": "string",
          "name": "description",
          "type": "string"
        },
        {
          "internalType": "uint256",
          "name": "amount",
          "type": "uint256"
        },
        {
          "internalType": "bool",
          "name": "completed",
          "type": "bool"
        },
        {
          "internalType": "bool",
          "name": "approved",
          "type": "bool"
        },
        {
          "internalType": "bool",
          "name": "paid",
          "type": "bool"
        },
        {
          "internalType": "uint256",
          "name": "dueDate",
          "type": "uint256"
        }
      ],
      "stateMutability": "view",
      "type": "function"
    },
    {
      "inputs": [
        {
          "internalType": "uint256",
          "name": "_projectId",
          "type": "uint256"
        }
      ],
      "name": "getProject",
      "outputs": [
        {
          "internalType": "uint256",
          "name": "id",
          "type": "uint256"
        },
        {
          "internalType": "string",
          "name": "name",
          "type": "string"
        },
        {
          "internalType": "string",
          "name": "description",
          "type": "string"
        },
        {
          "internalType": "address",
          "name": "creator",
          "type": "address"
        },
        {
          "internalType": "address",
          "name": "sponsor",
          "type": "address"
        },
        {
          "internalType": "uint256",
          "name": "totalBudget",
          "type": "uint256"
        },
        {
          "internalType": "uint256",
          "name": "totalDeposited",
          "type": "uint256"
        },
        {
          "internalType": "uint256",
          "name": "totalReleased",
          "type": "uint256"
        },
        {
          "internalType": "uint256",
          "name": "currentMilestone",
          "type": "uint256"
        },
        {
          "internalType": "bool",
          "name": "active",
          "type": "bool"
        },
        {
          "internalType": "uint256",
          "name": "createdAt",
          "type": "uint256"
        }
      ],
      "stateMutability": "view",
      "type": "function"
    },
    {
      "inputs": [
        {
          "internalType": "uint256",
          "name": "_projectId",
          "type": "uint256"
        }
      ],
      "name": "getProjectMilestones",
      "outputs": [
        {
          "components": [
            {
              "internalType": "string",
              "name": "description",
              "type": "string"
            },
            {
              "internalType": "uint256",
              "name": "amount",
              "type": "uint256"
            },
            {
              "internalType": "bool",
              "name": "completed",
              "type": "bool"
            },
            {
              "internalType": "bool",
              "name": "approved",
              "type": "bool"
            },
            {
              "internalType": "bool",
              "name": "paid",
              "type": "bool"
            },
            {
              "internalType": "uint256",
              "name": "dueDate",
              "type": "uint256"
            }
          ],
          "internalType": "struct ProjectFunding.Milestone[]",
          "name": "",
          "type": "tuple[]"
        }
      ],
      "stateMutability": "view",
      "type": "function"
    },
    {
      "inputs": [
        {
          "internalType": "address",
          "name": "_sponsor",
          "type": "address"
        }
      ],
      "name": "getSponsoredProjects",
      "outputs": [
        {
          "internalType": "uint256[]",
          "name": "",
          "type": "uint256[]"
        }
      ],
      "stateMutability": "view",
      "type": "function"
    },
    {
      "inputs": [],
      "name": "getTotalProjects",
      "outputs": [
        {
          "internalType": "uint256",
          "name": "",
          "type": "uint256"
        }
      ],
      "stateMutability": "view",
      "type": "function"
    },
    {
      "inputs": [
        {
          "internalType": "address",
          "name": "_user",
          "type": "address"
        }
      ],
      "name": "getUserProjects",
      "outputs": [
        {
          "internalType": "uint256[]",
          "name": "",
          "type": "uint256[]"
        }
      ],
      "stateMutability": "view",
      "type": "function"
    },
    {
      "inputs": [],
      "name": "owner",
      "outputs": [
        {
          "internalType": "address",
          "name": "",
          "type": "address"
        }
      ],
      "stateMutability": "view",
      "type": "function"
    },
    {
      "inputs": [
        {
          "internalType": "uint256",
          "name": "",
          "type": "uint256"
        }
      ],
      "name": "projects",
      "outputs": [
        {
          "internalType": "uint256",
          "name": "id",
          "type": "uint256"
        },
        {
          "internalType": "string",
          "name": "name",
          "type": "string"
        },
        {
          "internalType": "string",
          "name": "description",
          "type": "string"
        },
        {
          "internalType": "address",
          "name": "creator",
          "type": "address"
        },
        {
          "internalType": "address",
          "name": "sponsor",
          "type": "address"
        },
        {
          "internalType": "uint256",
          "name": "totalBudget",
          "type": "uint256"
        },
        {
          "internalType": "uint256",
          "name": "totalDeposited",
          "type": "uint256"
        },
        {
          "internalType": "uint256",
          "name": "totalReleased",
          "type": "uint256"
        },
        {
          "internalType": "uint256",
          "name": "currentMilestone",
          "type": "uint256"
        },
        {
          "internalType": "bool",
          "name": "active",
          "type": "bool"
        },
        {
          "internalType": "uint256",
          "name": "createdAt",
          "type": "uint256"
        }
      ],
      "stateMutability": "view",
      "type": "function"
    },
    {
      "inputs": [],
      "name": "renounceOwnership",
      "outputs": [],
      "stateMutability": "nonpayable",
      "type": "function"
    },
    {
      "inputs": [
        {
          "internalType": "address",
          "name": "",
          "type": "address"
        },
        {
          "internalType": "uint256",
          "name": "",
          "type": "uint256"
        }
      ],
      "name": "sponsoredProjects",
      "outputs": [
        {
          "internalType": "uint256",
          "name": "",
          "type": "uint256"
        }
      ],
      "stateMutability": "view",
      "type": "function"
    },
    {
      "inputs": [
        {
          "internalType": "address",
          "name": "newOwner",
          "type": "address"
        }
      ],
      "name": "transferOwnership",
      "outputs": [],
      "stateMutability": "nonpayable",
      "type": "function"
    },
    {
      "inputs": [
        {
          "internalType": "address",
          "name": "",
          "type": "address"
        },
        {
          "internalType": "uint256",
          "name": "",
          "type": "uint256"
        }
      ],
      "name": "userProjects",
      "outputs": [
        {
          "internalType": "uint256",
          "name": "",
          "type": "uint256"
        }
      ],
      "stateMutability": "view",
      "type": "function"
    }
  ],
  "bytecode": "0x6080604052600160025534801561001557600080fd5b50338061003c57604051631e4fbdf760e01b81526000600482015260240160405180910390fd5b6100458161004f565b506001805561009f565b600080546001600160a01b038381166001600160a01b0319831681178455604051919092169283917f8be0079c531659141344cd1fd0a4f28419497f9722a3daafe3b4186f6b6457e09190a35050565b612357806100ae6000396000f3fe6080604052600436106101095760003560e01c806371fee2b211610095578063cdcb279b11610064578063cdcb279b146102e2578063e32e723c14610302578063f0f3f2c814610322578063f2fde38b14610342578063f326206b1461036257600080fd5b806371fee2b214610253578063812739a2146102735780638da5cb5b146102885780638ed9895c146102b057600080fd5b806352766d80116100dc57806352766d80146101b15780635312ea8e146101de57806359f4d641146101fe5780636f9fb98a1461022b578063715018a61461023e57600080fd5b8063107046bd1461010e57806320913da51461014e5780632fa9c007146101705780633b76594d1461019e575b600080fd5b34801561011a57600080fd5b5061012e610129366004611aad565b610382565b6040516101459b9a99989796959493929190611b0c565b60405180910390f35b34801561015a57600080fd5b5061016e610169366004611b89565b6104fb565b005b34801561017c57600080fd5b5061019061018b366004611bc7565b610945565b604051908152602001610145565b61016e6101ac366004611aad565b610976565b3480156101bd57600080fd5b506101d16101cc366004611aad565b610b52565b6040516101459190611bf1565b3480156101ea57600080fd5b5061016e6101f9366004611aad565b610cc7565b34801561020a57600080fd5b5061021e610219366004611c96565b610e0d565b6040516101459190611cb8565b34801561023757600080fd5b5047610190565b34801561024a57600080fd5b5061016e610e79565b34801561025f57600080fd5b5061019061026e366004611ec2565b610e8d565b34801561027f57600080fd5b50610190611356565b34801561029457600080fd5b506000546040516001600160a01b039091168152602001610145565b3480156102bc57600080fd5b506102d06102cb366004611b89565b61136c565b60405161014596959493929190611fa3565b3480156102ee57600080fd5b506101906102fd366004611bc7565b6114d9565b34801561030e57600080fd5b5061021e61031d366004611c96565b6114f5565b34801561032e57600080fd5b5061012e61033d366004611aad565b61155f565b34801561034e57600080fd5b5061016e61035d366004611c96565b611743565b34801561036e57600080fd5b5061016e61037d366004611b89565b611781565b600360205260009081526040902080546001820180549192916103a490611fe1565b80601f01602080910402602001604051908101604052809291908181526020018280546103d090611fe1565b801561041d5780601f106103f25761010080835404028352916020019161041d565b820191906000526020600020905b81548152906001019060200180831161040057829003601f168201915b50505050509080600201805461043290611fe1565b80601f016020809104026020016040519081016040528092919081815260200182805461045e90611fe1565b80156104ab5780601f10610480576101008083540402835291602001916104ab565b820191906000526020600020905b81548152906001019060200180831161048e57829003601f168201915b50505060038401546004850154600586015460068701546007880154600889015460098a0154600a909a015498996001600160a01b03968716999590961697509295509093909260ff909116908b565b8160008111801561050d575060025481105b6105325760405162461bcd60e51b815260040161052990612015565b60405180910390fd5b600083815260036020526040902060090154839060ff166105655760405162461bcd60e51b815260040161052990612045565b60008481526003602052604090206004015484906001600160a01b031633146105a05760405162461bcd60e51b815260040161052990612074565b6105a8611a06565b6000858152600360205260409020600b81015485106105d95760405162461bcd60e51b8152600401610529906120b6565b80600b0185815481106105ee576105ee6120ed565b600091825260209091206002600490920201015460ff166106515760405162461bcd60e51b815260206004820152601b60248201527f4d696c6573746f6e65206e6f7420636f6d706c657465642079657400000000006044820152606401610529565b80600b018581548110610666576106666120ed565b906000526020600020906004020160020160019054906101000a900460ff16156106d25760405162461bcd60e51b815260206004820152601a60248201527f4d696c6573746f6e6520616c726561647920617070726f7665640000000000006044820152606401610529565b80600b0185815481106106e7576106e76120ed565b906000526020600020906004020160020160029054906101000a900460ff161561074c5760405162461bcd60e51b8152602060048201526016602482015275135a5b195cdd1bdb9948185b1c9958591e481c185a5960521b6044820152606401610529565b600081600b018681548110610763576107636120ed565b906000526020600020906004020190508060010154826006015410156107cb5760405162461bcd60e51b815260206004820152601c60248201527f496e73756666696369656e742066756e6473206465706f7369746564000000006044820152606401610529565b60028101805462ffff0019166201010017905560018101546007830180546000906107f7908490612119565b909155505060088201805490600061080e83612132565b9091555050600382015460018201546040516001600160a01b039092169181156108fc0291906000818181858888f19350505050158015610853573d6000803e3d6000fd5b50867f6e3fd8bb18eed6833ae758e07c361bf145ce27c88bdf6d5029ddabf188d72ca6878360010154604051610893929190918252602082015260400190565b60405180910390a26003820154600182015460408051918252602082018990526001600160a01b039092169189917f93e901cc5aea20ea9655887d9290a3215a5b3999c024812f4e4b749f7534349c910160405180910390a3600b8201546008830154106109335760098201805460ff1916905560405187907f60d8df137e489b6216738e436244ca4700bd6d0c8371d3c8d9c80b54538111b990600090a25b505061093e60018055565b5050505050565b6004602052816000526040600020818154811061096157600080fd5b90600052602060002001600091509150505481565b80600081118015610988575060025481105b6109a45760405162461bcd60e51b815260040161052990612015565b600082815260036020526040902060090154829060ff166109d75760405162461bcd60e51b815260040161052990612045565b60008381526003602052604090206004015483906001600160a01b03163314610a125760405162461bcd60e51b815260040161052990612074565b60003411610a705760405162461bcd60e51b815260206004820152602560248201527f4465706f73697420616d6f756e74206d75737420626520677265617465722074604482015264068616e20360dc1b6064820152608401610529565b600084815260036020526040902060058101546006820154610a93903490612119565b1115610aef5760405162461bcd60e51b815260206004820152602560248201527f43616e6e6f74206465706f736974206d6f7265207468616e20746f74616c20626044820152641d5919d95d60da1b6064820152608401610529565b34816006016000828254610b039190612119565b90915550506006810154604080513481526020810192909252339187917f1c5831173620d6383a8570c099431dfb1eb2fcafeb44302976ed2cfecc4b788b910160405180910390a35050505050565b606081600081118015610b66575060025481105b610b825760405162461bcd60e51b815260040161052990612015565b6000838152600360209081526040808320600b0180548251818502810185019093528083529193909284015b82821015610cba57838290600052602060002090600402016040518060c0016040529081600082018054610be190611fe1565b80601f0160208091040260200160405190810160405280929190818152602001828054610c0d90611fe1565b8015610c5a5780601f10610c2f57610100808354040283529160200191610c5a565b820191906000526020600020905b815481529060010190602001808311610c3d57829003601f168201915b5050509183525050600182810154602080840191909152600284015460ff80821615156040860152610100820481161515606086015262010000909104161515608084015260039093015460a09092019190915291835292019101610bae565b5050505091505b50919050565b80600081118015610cd9575060025481105b610cf55760405162461bcd60e51b815260040161052990612015565b60008281526003602052604090206004015482906001600160a01b03163314610d305760405162461bcd60e51b815260040161052990612074565b610d38611a06565b600083815260036020526040812060078101546006820154919291610d5d919061214b565b905060008111610db95760405162461bcd60e51b815260206004820152602160248201527f4e6f2066756e647320617661696c61626c6520666f72207769746864726177616044820152601b60fa1b6064820152608401610529565b6007820154600683015560098201805460ff19169055604051339082156108fc029083906000818181858888f19350505050158015610dfc573d6000803e3d6000fd5b505050610e0860018055565b505050565b6001600160a01b038116600090815260056020908152604091829020805483518184028101840190945280845260609392830182828015610e6d57602002820191906000526020600020905b815481526020019060010190808311610e59575b50505050509050919050565b610e81611a30565b610e8b6000611a5d565b565b60006001600160a01b038516610ee55760405162461bcd60e51b815260206004820152601760248201527f496e76616c69642073706f6e736f7220616464726573730000000000000000006044820152606401610529565b8251845114610f365760405162461bcd60e51b815260206004820181905260248201527f4d696c6573746f6e6520617272617973206c656e677468206d69736d617463686044820152606401610529565b8151835114610f875760405162461bcd60e51b815260206004820181905260248201527f4d696c6573746f6e6520617272617973206c656e677468206d69736d617463686044820152606401610529565b6000845111610fd85760405162461bcd60e51b815260206004820152601f60248201527f4174206c65617374206f6e65206d696c6573746f6e65207265717569726564006044820152606401610529565b6000805b84518110156110ff576000858281518110610ff957610ff96120ed565b60200260200101511161105e5760405162461bcd60e51b815260206004820152602760248201527f4d696c6573746f6e6520616d6f756e74206d75737420626520677265617465726044820152660207468616e20360cc1b6064820152608401610529565b42848281518110611071576110716120ed565b6020026020010151116110c65760405162461bcd60e51b815260206004820152601e60248201527f4475652064617465206d75737420626520696e207468652066757475726500006044820152606401610529565b8481815181106110d8576110d86120ed565b6020026020010151826110eb9190612119565b9150806110f781612132565b915050610fdc565b50600280546000918261111183612132565b909155506000818152600360205260409020818155909150600181016111378b826121ac565b50600281016111468a826121ac565b50600381018054336001600160a01b0319918216179091556004820180549091166001600160a01b038a161790556005810183905560098101805460ff1916600117905542600a82015560005b87518110156112be5781600b016040518060c001604052808a84815181106111bd576111bd6120ed565b602002602001015181526020018984815181106111dc576111dc6120ed565b60200260200101518152602001600015158152602001600015158152602001600015158152602001888481518110611216576112166120ed565b602090810291909101810151909152825460018101845560009384529220815191926004020190819061124990826121ac565b50602082015160018201556040820151600282018054606085015160808601511515620100000262ff0000199115156101000261ff00199515159590951661ffff1990931692909217939093179290921691909117905560a090910151600390910155806112b681612132565b915050611193565b50336000818152600460209081526040808320805460018181018355918552838520018790556001600160a01b038d168085526005845282852080549283018155855292909320909201859055905190919084907f855018e1c559e56d1f2ef0e5726673a7f2bcfde96998cc3f2f5a38c32bce53a390611341908f90899061226c565b60405180910390a45098975050505050505050565b60006001600254611367919061214b565b905090565b6060600080600080600087600081118015611388575060025481105b6113a45760405162461bcd60e51b815260040161052990612015565b6000898152600360205260409020600b015488106113d45760405162461bcd60e51b8152600401610529906120b6565b6000898152600360205260408120600b0180548a9081106113f7576113f76120ed565b600091825260209091206004909102016001810154600282015460038301548354939450849360ff8084169361010081048216936201000090910490911691869061144190611fe1565b80601f016020809104026020016040519081016040528092919081815260200182805461146d90611fe1565b80156114ba5780601f1061148f576101008083540402835291602001916114ba565b820191906000526020600020905b81548152906001019060200180831161149d57829003601f168201915b5050505050955097509750975097509750975050509295509295509295565b6005602052816000526040600020818154811061096157600080fd5b6001600160a01b038116600090815260046020908152604091829020805483518184028101840190945280845260609392830182828015610e6d5760200282019190600052602060002090815481526020019060010190808311610e595750505050509050919050565b60006060806000806000806000806000808b600081118015611582575060025481105b61159e5760405162461bcd60e51b815260040161052990612015565b60008d8152600360208190526040909120805491810154600482015460058301546006840154600785015460088601546009870154600a880154600189018054999a99909860028c01986001600160a01b0391821698911696909590949093909260ff909116918a9061161090611fe1565b80601f016020809104026020016040519081016040528092919081815260200182805461163c90611fe1565b80156116895780601f1061165e57610100808354040283529160200191611689565b820191906000526020600020905b81548152906001019060200180831161166c57829003601f168201915b5050505050995088805461169c90611fe1565b80601f01602080910402602001604051908101604052809291908181526020018280546116c890611fe1565b80156117155780601f106116ea57610100808354040283529160200191611715565b820191906000526020600020905b8154815290600101906020018083116116f857829003601f168201915b505050505098509c509c509c509c509c509c509c509c509c509c509c50505091939597999b90929496989a50565b61174b611a30565b6001600160a01b03811661177557604051631e4fbdf760e01b815260006004820152602401610529565b61177e81611a5d565b50565b81600081118015611793575060025481105b6117af5760405162461bcd60e51b815260040161052990612015565b600083815260036020526040902060090154839060ff166117e25760405162461bcd60e51b815260040161052990612045565b6000848152600360208190526040909120015484906001600160a01b031633146118595760405162461bcd60e51b815260206004820152602260248201527f4f6e6c792070726f6a6563742063726561746f722063616e2063616c6c207468604482015261697360f01b6064820152608401610529565b6000858152600360205260409020600b810154851061188a5760405162461bcd60e51b8152600401610529906120b6565b80600b01858154811061189f5761189f6120ed565b600091825260209091206002600490920201015460ff16156119035760405162461bcd60e51b815260206004820152601b60248201527f4d696c6573746f6e6520616c726561647920636f6d706c6574656400000000006044820152606401610529565b806008015485146119605760405162461bcd60e51b815260206004820152602160248201527f4d75737420636f6d706c657465206d696c6573746f6e657320696e206f7264656044820152603960f91b6064820152608401610529565b600181600b018681548110611977576119776120ed565b906000526020600020906004020160020160006101000a81548160ff021916908315150217905550857fa2efa9e8a9cb69da31069e845d86ddc3da31da23669a47f5ec5f60247d31a16b8683600b0188815481106119d7576119d76120ed565b90600052602060002090600402016000016040516119f692919061228e565b60405180910390a2505050505050565b600260015403611a2957604051633ee5aeb560e01b815260040160405180910390fd5b6002600155565b6000546001600160a01b03163314610e8b5760405163118cdaa760e01b8152336004820152602401610529565b600080546001600160a01b038381166001600160a01b0319831681178455604051919092169283917f8be0079c531659141344cd1fd0a4f28419497f9722a3daafe3b4186f6b6457e09190a35050565b600060208284031215611abf57600080fd5b5035919050565b6000815180845260005b81811015611aec57602081850181015186830182015201611ad0565b506000602082860101526020601f19601f83011685010191505092915050565b60006101608d8352806020840152611b268184018e611ac6565b90508281036040840152611b3a818d611ac6565b6001600160a01b039b8c16606085015299909a1660808301525060a081019690965260c086019490945260e0850192909252610100840152151561012083015261014090910152949350505050565b60008060408385031215611b9c57600080fd5b50508035926020909101359150565b80356001600160a01b0381168114611bc257600080fd5b919050565b60008060408385031215611bda57600080fd5b611be383611bab565b946020939093013593505050565b60006020808301818452808551808352604092508286019150828160051b87010184880160005b83811015611c8857603f19898403018552815160c08151818652611c3e82870182611ac6565b838b0151878c01528984015115158a88015260608085015115159088015260808085015115159088015260a093840151939096019290925250509386019390860190600101611c18565b509098975050505050505050565b600060208284031215611ca857600080fd5b611cb182611bab565b9392505050565b6020808252825182820181905260009190848201906040850190845b81811015611cf057835183529284019291840191600101611cd4565b50909695505050505050565b634e487b7160e01b600052604160045260246000fd5b604051601f8201601f1916810167ffffffffffffffff81118282101715611d3b57611d3b611cfc565b604052919050565b600082601f830112611d5457600080fd5b813567ffffffffffffffff811115611d6e57611d6e611cfc565b611d81601f8201601f1916602001611d12565b818152846020838601011115611d9657600080fd5b816020850160208301376000918101602001919091529392505050565b600067ffffffffffffffff821115611dcd57611dcd611cfc565b5060051b60200190565b600082601f830112611de857600080fd5b81356020611dfd611df883611db3565b611d12565b82815260059290921b84018101918181019086841115611e1c57600080fd5b8286015b84811015611e5c57803567ffffffffffffffff811115611e405760008081fd5b611e4e8986838b0101611d43565b845250918301918301611e20565b509695505050505050565b600082601f830112611e7857600080fd5b81356020611e88611df883611db3565b82815260059290921b84018101918181019086841115611ea757600080fd5b8286015b84811015611e5c5780358352918301918301611eab565b60008060008060008060c08789031215611edb57600080fd5b863567ffffffffffffffff80821115611ef357600080fd5b611eff8a838b01611d43565b97506020890135915080821115611f1557600080fd5b611f218a838b01611d43565b9650611f2f60408a01611bab565b95506060890135915080821115611f4557600080fd5b611f518a838b01611dd7565b94506080890135915080821115611f6757600080fd5b611f738a838b01611e67565b935060a0890135915080821115611f8957600080fd5b50611f9689828a01611e67565b9150509295509295509295565b60c081526000611fb660c0830189611ac6565b602083019790975250931515604085015291151560608401521515608083015260a090910152919050565b600181811c90821680611ff557607f821691505b602082108103610cc157634e487b7160e01b600052602260045260246000fd5b602080825260169082015275141c9bda9958dd08191bd95cc81b9bdd08195e1a5cdd60521b604082015260600190565b60208082526015908201527450726f6a656374206973206e6f742061637469766560581b604082015260600190565b60208082526022908201527f4f6e6c792070726f6a6563742073706f6e736f722063616e2063616c6c207468604082015261697360f01b606082015260800190565b60208082526017908201527f496e76616c6964206d696c6573746f6e6520696e646578000000000000000000604082015260600190565b634e487b7160e01b600052603260045260246000fd5b634e487b7160e01b600052601160045260246000fd5b8082018082111561212c5761212c612103565b92915050565b60006001820161214457612144612103565b5060010190565b8181038181111561212c5761212c612103565b601f821115610e0857600081815260208120601f850160051c810160208610156121855750805b601f850160051c820191505b818110156121a457828155600101612191565b505050505050565b815167ffffffffffffffff8111156121c6576121c6611cfc565b6121da816121d48454611fe1565b8461215e565b602080601f83116001811461220f57600084156121f75750858301515b600019600386901b1c1916600185901b1785556121a4565b600085815260208120601f198616915b8281101561223e5788860151825594840194600190910190840161221f565b508582101561225c5787850151600019600388901b60f8161c191681555b5050505050600190811b01905550565b60408152600061227f6040830185611ac6565b90508260208301529392505050565b82815260006020604081840152600084546122a881611fe1565b80604087015260606001808416600081146122ca57600181146122e457612312565b60ff1985168984015283151560051b890183019550612312565b896000528660002060005b8581101561230a5781548b82018601529083019088016122ef565b8a0184019650505b5093999850505050505050505056fea26469706673582212205b5b73c1b08c91123b27b7ba9fd433cc3b30375c4c8b6f80ae9bdca89278c61e64736f6c63430008140033",
  "linkReferences": {},
  "deployedLinkReferences": {}
}